:040000006F0020501D
:100004000000000000000000080200000A020000D6
:1000140000000000000500000000000000000000D7
:1000240000050000000500000000000000000000C2
:1000340000050000000000000005000000000000B2
:100044000005000000050000000500000005000098
:100054000005000000050000000500000005000088
:100064000005000000050000000500000005000078
:10007400000500001A020000000500000005000051
:100084000005000000050000000500000005000058
:100094000005000000050000000500000005000048
:1000A4000005000000050000000500000005000038
:1000B4000005000000050000000500000005000028
:1000C4000005000000050000000500000005000018
:1000D4000005000000050000000500000005000008
:1000E40000050000000500000005000000050000F8
:0C00F400000500000005000000050000F1
:10010000397101436EC619A0397141536AC866CA74
:1001100062CC5ECE19A0397101535AD056D252D456
:100120004ED64AD826DA22DC06DE330161408282CE
:1001300041114AC026C222C406C68282B24D410184
:10014000024D924C224CB24B4101024B924A224A40
:10015000B2494101024992442244B24041018280A5
:100160003D432A876373C3029377F700BDEFADE584
:10017000937606FF3D8ABA960CC34CC30CC74CC796
:100180004107E36BD7FE11E28280B306C3408A06C3
:100190009702000096966780A6002307B700A30683
:1001A000B7002306B700A305B7002305B700A304D3
:1001B000B7002304B700A303B7002303B700A302CB
:1001C000B7002302B700A301B7002301B700A300C3
:1001D000B7002300B700828093F5F50F9396850052
:1001E000D58D93960501D58D61B79396270097021B
:1001F000000096968682E78086FA9680C1171D8F4A
:100200003E96E374C3F8A5B701A0B707EFBE37E782
:1002100000E0938707083CC701A083A7C18113852D
:100220008183850723AEF180EF00D0177300203063
:10023000938781819843050798C38280EFF25FEF2F
:100240003725000013054535EF00506D21B7EFF25B
:10025000BFEB017105456123192CEF00B0417165B9
:1002600013050520EF00B043B707002083A507085A
:100270003725000013058520EF001059012EAA85AF
:100280003725000013058521EF00105837250000A1
:1002900013058522EF009068EF00903CB70700003F
:1002A0003707000037160020B70500209385850E1C
:1002B000138581839387C723130707238566130656
:1002C000860EEF00607EA96513858183EF007000C4
:1002D0002DC53725000013050524EF003064814744
:1002E00013070020B306F1009CA28507E39CE7FEFC
:1002F0008144A96A130BF01FB72B000063E4540577
:10030000372500001305C52BEF0050617D54B72938
:100310000000B7240000938781819843E30D87FE96
:1003200080438C431385C92FEF00104E83A5C181F4
:1003300013854433EF00504DF9BF372500001305F6
:10034000052761BF13858183EF00207B2A895DD556
:10035000B3899A40130400206363AB002A8463F3DB
:1003600089004E8422868A8513858183EF00E07A96
:1003700019C1A29461B74E86CA851385CB28EF00B8
:10038000B048ADBFB71702409843B706FFF0411120
:100390001367170098C3D84337060200758FD8C378
:1003A0009843B706F7FEFD16758F98C39843B706B6
:1003B000FCFFFD16758F98C3D843B70601FFFD16E5
:1003C000758FD8C337079F0098C702C402C69843E9
:1003D000C166558F98C3B716024005679C42F18FDE
:1003E0003EC6A24785073EC4B24781E7A247E397CE
:1003F000E7FEB71702409C431397E70063570706D1
:1004000085473EC632478547631FF704B71702404A
:10041000D843B706C1FFFD16D8C3D843D8C3D843C5
:1004200013670740D8C3D843758FD8C3D843B706DE
:100430003D00558FD8C39843B7060001558F98C328
:10044000984393166700E3DD06FED843B7160240D3
:10045000719BD8C3D84313672700D8C32147DC4218
:10046000B18BE39EE7FE4101828002C661BFB716F1
:100470000240DC42370700201146B18B1307070802
:100480006385C70021466388C702B7177A00938740
:1004900007201CC3B7170240DC43918393F6F70093
:1004A000B707002093870700B69794231C43B3D760
:1004B000D7001CC38280DC42D4424166C983BD8B15
:1004C000F18E890745466393C700C94781EEB74659
:1004D000024083A60680C18A89CEB7167A00938629
:1004E000062021A8B7160240D4421396E600E35630
:1004F00006FEB7163D0093860690B387D70251BF1C
:1005000001A0970100209381E137175100201301CA
:1005100061AF17250000130525EF9705002093858F
:1005200065AE1386818163FAC5008322050023A08E
:10053000550011059105E3EAC5FE138581819725D4
:1005400000209385E5BC6377B500232005001105E5
:10055000E36DB5FEFD42739002BC8D427390428004
:100560009302800873900230970200009382C2A920
:1005700093E2320073905230EFF0DFE09702000018
:10058000938222CD7390123473002030B7F7FF1F8F
:1005900003A5477082801C4141677917F98F1CC100
:1005A000232005002322050023240500B70702406D
:1005B00023260500138787006316E500D8431367D9
:1005C000F70001A81387C7016317E500D843136735
:1005D000070FD8C3B1A8138707036318E500D843F2
:1005E0008566938606F0558FEDB71387470463152C
:1005F000E500D843BD66C5BF138787056316E500D0
:10060000D843B7060F00C5B71387C7066316E500C2
:10061000D843B706F000C1BF138707086316E5008B
:10062000D843B706000FC1B713874709E308E5F8B9
:1006300082801C4161773D0794517D8F9C45D58F09
:100640009449D58FD449D58F944DD58FD44DD58F1E
:10065000D451D58F9455D58FD98F1CC1DC455CC141
:100660009C411CC5DC415CC58280232005002322FF
:100670000500232405002326050023280500232A3E
:100680000500232C0500232E05002320050223222C
:1006900005022324050282801C4189C593E71700C7
:1006A0001CC1828041677917F98FDDBF1C4101C6EB
:1006B000DD8D0CC1828093C5F5FFFD8DDDBF484106
:1006C000420541818280B70702409C437D8D3335CE
:1006D000A0008280B7070240C8C38280EFF25FA506
:1006E000DD378DBCB7070240C8C382809C4513F735
:1006F000070113F8F70001C7D8413368E80037272E
:100700000240145B3707000F758F4DEB8546238041
:10071000D182371701406315E5009A2135839AA1EC
:100720008E2113F7F50F39C318418146854E3D4F91
:10073000930F800293028004214E3396DE00B3F8BB
:10074000C500631116039398260033131F0113434A
:10075000F3FF3377E300B318180133E7E80063973A
:10076000F70750C98506E39AC6FD18C11307F00FB5
:100770006375B70454412146854E3D4F930F800267
:1007800093028004414EB398CE0033F71501639273
:10079000E8021317260001173313EF001343F3FF8A
:1007A000B376D3003317E800D98E6395F703232A75
:1007B00015010506E319C6FD54C1828037170140B3
:1007C000E310E5F603C7018221DF81BFE39C57F800
:1007D00010C949BFE39F57FC23281501D9BF23A2A5
:1007E000A182828003A74182854714216310F7020A
:1007F0001C31639CE7023C21960793E707F837E733
:1008000000E093F7F70F36972300F740054793D79B
:1008100056003317D700544189CE938707048A07BF
:10082000B7E600E0B69798C38280EDF33C219607C7
:10083000F9B793870706E5B7371702405C4391463F
:10084000B18B6385D700A1466382D706B7177A00BC
:10085000938707201CC1371602405C4237070020EF
:10086000130707019183BD8BBA9794231C41B3D71B
:10087000D7005CC15442A1829D8ABA969422B3D615
:10088000D70014C55442AD829D8A36971823B3D73A
:10089000E7005CC55842398393763700138741805F
:1008A00036971823B3D7E7021CC982805C435843AC
:1008B000C166C983BD8B758F8907C5466393D70011
:1008C000C94701EF3747024003270780418B09CF13
:1008D00037177A001307072021A83717024058431B
:1008E0009316E700E3D606FE37173D00130707907F
:1008F000B387E70285B799C5371702405C4B5D8D1A
:1009000048CB8280B7170240D84B1345F5FF798D4D
:10091000C8CB828099C5371702401C4F5D8D08CF28
:100920008280B7170240984F1345F5FF798D88CF25
:1009300082801A218D6793870704B6217D8F9E21BF
:10094000D58FD621D58FF621D58F9625D58FB62573
:10095000D58FD625D58FF625D58FD98F1EA15A2DA7
:10096000FD779387F77FF98F5EAD9E291EA9828060
:100970001E2189C593E707041EA18280C207C18397
:1009800093F7F7FBC207C183C5BF5E2101C6DD8DAA
:100990004EA1828093C5F5FFFD8DDDBFEFF24FF9CB
:1009A0001629F577FD17F58FF621DA257971D58FA0
:1009B0001EA95625FD779387379FF58FD6212A8468
:1009C0002EC6D58F9625D58FB625D58F5EA55E29E7
:1009D000C207C18393F7F7CFD98F5EA96808A93DF5
:1009E000B747014093870780B245631EF402A257C0
:1009F0006547B387E7029841930640060A07B3D7D5
:100A0000E70233D7D702B3F7D702120792079387CB
:100A10002703B3D7D702BD8BD98FC207C1831EA4CA
:100A200045616FF02FF39257E1B791C55E250967D5
:100A3000D98F5EA582805A25F977FD17F98FD5BF2A
:100A400093F5F51F4EA182800A216D8D3335A000EC
:100A5000828003478502AA871377F70F0DCB0841E1
:100A6000D84B6306A7022384070215CDD84F8C47C5
:100A700063E3E500CC4FC8CBCCD7B727002083A7D2
:100A8000C70F95C3EFF2CFEA82976FF0AFEC03C7C1
:100A900097021377F70F01CBC843D84B6305A70024
:100AA000A3840702D9B78280232E050023200502E4
:100AB0002322050223040502A30405020CC150C130
:100AC00014C558C51CC9232A05000CCD23260502D0
:100AD0008280585185476300F7024CCD23200502E0
:100AE0005CD11C4123040502A30405021CCD232A6A
:100AF0000500054582800145828058518547631C69
:100B0000F700144D584981476385E60018511C458C
:100B1000998F3E8582808147EDBF58518547630894
:100B2000F70001458280014541016FF0AFE2EFF22D
:100B30002FE041112A8432892EC6C1376DD5AA848F
:100B4000B2456373A900CA841C50084C26863E95A2
:100B5000192108501C44AA9404D018506378F70057
:100B600018505C4C6374F70005457DBF1C40184C61
:100B70006316F70285472304F4025C401CCCB727B8
:100B8000002083A7471023200402014591C38297C8
:100B90005C48F9FB71F922856D3DF9B70547A3045F
:100BA000E402E9BFEFF2CFD85451B7240020054743
:100BB00083A7840E9384840E638EE60089C7829790
:100BC00019C1DC4082979C44B9CF829729CDDC447F
:100BD000829791A82A849DCB82970DC9DC40829789
:100BE00058545C4C63F3E700584C5C4C232A0400D7
:100BF000998F5CCC232604025C4C85EB89475CD042
:100C00009C4C91C382975C4491C382979C4481CF52
:100C1000829711C9DC4482978D475CD09C4C91C36C
:100C200082971C48D5F76FF0EFD222851D35F9BFAA
:100C3000B7070240885B05898280EFF26FCF3705E6
:100C4000024013050503A53C6FF0CFD0EFF24FCE65
:100C5000370502408145130505033D3C01468945A2
:100C6000373501401D336FF0EFCEEFF26FCC0565E5
:100C700013050580853C6FF0EFCDEFF26FCB1305C8
:100C800000208D346FF00FCDEFF28FCA3704024091
:100C9000797123A4B1822A89AE84130504038145A6
:100CA000E53A4800D932B7370140B1073EC2C147E3
:100CB0003EC6930700084C003ECC13050403896729
:100CC0003ED44AC426C802CA856402CE02D002D2EB
:100CD00002D68532138504A03134138504A0DD3A91
:100CE000130504030546A945D13205468945373524
:100CF00001406139854513050403793A45616FF078
:100D00006FC5EFF2EFC2056513050580C13A7D1589
:100D1000133515006FF00FC4EFF28FC113050020DB
:100D2000753A7D15133515006FF0CFC2EFF24FC045
:100D3000797185450565F93E854505456D3E8545D5
:100D40003145C93E3705024013050503EFF0BF8466
:100D5000371401408D449307000261490C081305C4
:100D60000480FC804ACC26CA231901004132930733
:100D700000080C0813050480FC804ACC26CAEFF05A
:100D8000FF964149930700100C08130504C0FC802E
:100D90004ACC26CAEFF09F9585470C08130504C07E
:100DA000FC804ACC26CAEFF07F9489470C081305D3
:100DB00004C0FC804ACC26CAEFF05F939307004042
:100DC0000C08130504C0FC804ACC26CAEFF01F9221
:100DD000B7C704013ECEB70702003ED0B7070002F6
:100DE00085073ED26C08A147373501403ED4913685
:100DF000854537350140AD3EF5477C842800854761
:100E00003EC623050100F93A45616FF0AFB4B7174C
:100E10000000938787D11CC1B71700009387A7C72D
:100E20005CC1B7170000938727D01CC5B717000017
:100E30009387A7C65CC5B71700009387A7C31CC9D3
:100E4000B7170000938787C85CC9B717000093875E
:100E5000C7C41CCDB7170000938707C35CCD828041
:100E6000EFF20FADE135372500201305850E45372C
:100E70006FF04FAEB707002083A7070837177A0037
:100E800013070720B3D7E70293F7F70F2387F18201
:100E90001307803EB387E7022396F1828280EFF248
:100EA0002FA92A841165011185451105A5349307E1
:100EB00000207C82371501408D473EC44C00E1473D
:100EC000130505803EC6EFF07F8222C837440140FB
:100ED000B70708000C08130504803ECC02CA231E85
:100EE00001006D3C854513050480813605616FF076
:100EF0006FA6EFF24FA2B7440140AE893289014498
:100F000093840480634524014A856FF00FA4930500
:100F100000042685153E65DDB387890083850700BB
:100F200026850504C205C181213EE9BF1387818062
:100F30001C43B72600209386C6103E95636BD500F0
:100F4000B75600209386068063E5A60008C33E8559
:100F50008280FD57EDBFB3C7A5008D8B3307C50059
:100F600081E78D4763EDC700AA87637EE50894217A
:100F700085078505A38FD7FEE3EBE7FE8280937696
:100F80003500AA8789CA942185078505A38FD7FED6
:100F900093F63700C5BF9376C7FF138606FE63F04E
:100FA000C70683A3050083A2450083AF850003AF76
:100FB000C50083AE050103AE450103A3850183A8E7
:100FC000C5019385450223A0770003A8C5FF23A28E
:100FD000570023A4F70123A6E70123A8D70123AADA
:100FE000C70123AC670023AE17019387470223AEE6
:100FF00007FF75B790419107910523AEC7FEE3EB5C
:10100000D7FEE3E6E7F6828039713EDA2ED232D49B
:1010100036D63AD842DC46DE9387C18022CC804364
:1010200026CA06CEAA8409C41C4C99E32285ED2960
:101030000C4454102686228536C6EF007012F2400A
:101040006244D24421618280011126CA4AC806CE78
:1010500022CC4EC652C4AA842E8901C51C4D91E3F0
:10106000E1219C4C804499E326857D299717000057
:101070009387C731631BF402C0405E24A18BB1C7C4
:101080001C48A1C7FD59294A1C4483450900FD1786
:10109000B1E91CC463DD07062286A94526856120C7
:1010A000FD576308F502294535A09717000093877F
:1010B000E72F6314F4008044C9B7971700009387A3
:1010C000E72AE31CF4FAC0444DBFA2852685112A05
:1010D00055D97D55F2406244D2444249B249224A30
:1010E000056182801CC4050963D70700184C63CAD8
:1010F000E700638845011C401387170018C08CA3C4
:1011000061B7228626850520E31035F9D9B71C4042
:101110001387170018C0294798A371B79387C18018
:10112000AA85884315B7011122CC26CA4AC806CE23
:101130004EC6AA842E89328401C51C4D91E3ED264A
:1011400097170000938787246317F406C0401C4C50
:101150001CC45E24A18BC1C31C48B5CF1C480840E9
:101160009379F90F1379F90F1D8D5C486346F500EB
:10117000A2852685692C25E51C440505FD171CC4A0
:101180001C401387170018C0238037015C48638810
:10119000A7005E24858B81CBA9476316F900A28541
:1011A0002685B5240DEDF24062444A85D244424979
:1011B000B24905618280971700009387271F631447
:1011C000F400804469B7971700009387271AE3104B
:1011D000F4F8C044ADBFA2852685212041D17D59B8
:1011E000D9B741119387C18026C2844322C44AC023
:1011F00006C62A892E8489C49C4C99E326852D260F
:101200009717000093878718631BF402C0400317E9
:10121000C40093170701C18393F68700ADEA93F6E4
:10122000070195EEA5472320F900136707045AA488
:101230007D55B24022449244024941018280971771
:1012400000009387A7166314F4008044C9B797176A
:1012500000009387A711E31CF4FAC0444DBF918BA3
:101260009DC34C5889C9930744046384F5004A859B
:101270003123232A04025E242322040093F7B7FDBE
:101280005EA41C481CC05E2493E787005EA41C4833
:1012900099EB5E241307002093F707286385E70086
:1012A000A2854A85A1215E2413F717001DC35C485F
:1012B00023240400B307F0401CCC1C480145B5FBB7
:1012C0008317C40013F707082DD793E707045EA41C
:1012D00085B7898B014791E3584818C4F9BFDE25CB
:1012E000011122CC26CA06CE4AC84EC613F7870083
:1012F000AA842E8479EBD841634DE000B841634A5B
:10130000E0000145F2406244D2444249B2490561DD
:10131000828058547DD703A904009396370123A0F7
:10132000040063DB060670485E24918B99C75C401D
:101330001D8E5C5899C33C401D8E5C540C508146F8
:1013400026858297FD575A24631DF5009440F54782
:1013500063E8D706B70740208507B3D7D700858B4A
:10136000A5C31C48232204001CC09317370163D86F
:101370000700FD576314F5009C4091E368C84C5882
:1013800023A02401BDDD930744046384F500268572
:10139000F526232A0402B5B70C500146854626855A
:1013A0000297FD572A86E311F5F89C40B5DF754793
:1013B0006385E70059476393E70423A0240191B7AD
:1013C000136707045AA47D5535BF83A90501E38A35
:1013D00009F203A905008D8B23A03501330939419A
:1013E000014791E3D84918C4E35D20F11C540C5027
:1013F000CA864E86268582976347A0005E2493E7BF
:1014000007045EA4C9B7AA993309A940F1BF9C4952
:10141000B9CF011122CC06CE2A8411C51C4D81E71B
:101420002EC61922B24597170000938727F6639BB3
:10143000F5004C408397C50095C722856244F24071
:10144000056171BD97170000938747F66394F50017
:101450000C44CDB797170000938747F1E39CF5FC48
:101460004C44C9BFF2406244014505618280014598
:101470008280411122C406C62A844EA572A523206B
:101480000500232205002324050023220506232826
:101490000500232A0500232C05002146814513055C
:1014A000C505EFE0FFCB971700009387C7B15CD06D
:1014B000971700009387E7B31CD497170000938712
:1014C000C7B75CD497170000938727BA00D01CD801
:1014D000B24022444101828097050000938565F364
:1014E000A9A2411126C2130680069384F5FFB38496
:1014F000C4024AC02E8922C406C6938544071D260D
:101500002A8401CD2320050023222501310508C4AA
:10151000138684068145EFE0BFC42285B240224491
:1015200092440249410182801C4DADE3411106C63F
:1015300022C497070000938767FA1CD5938701811F
:101540009C4323240504232605042328050463144F
:10155000F50085471CCD2A841D2848C02285052812
:1015600008C422852D2048C44840014691451137C2
:1015700008440546A545F53D48440946C945D53DBD
:1015800085471CCCB24022444101828082804111B7
:101590009387018126C284434AC006C69C4C22C45C
:1015A0002A8999E326854937938484048044DC4062
:1015B000FD1763D607009C40B9CF8440C5BF031711
:1015C000C40039E7C17785072322040623200400DD
:1015D00023220400232404005CC423280400232ABB
:1015E0000400232C0400214681451305C405EFE0C7
:1015F0003FB7232A0402232C0402232404042326B5
:1016000004042285B240224492440249410182806E
:101610001304840671BF91454A85E13588C051FDA8
:10162000B1472320F9000144E9BF797122D44AD09F
:1016300052CC56CA5AC85EC606D626D24ECE2A8A82
:10164000AE8A130485040149054BFD5B09ECB250D9
:1016500022544A8592540259F249624AD24A424B74
:10166000B24B45618280044483294400FD1963D450
:1016700009000040E1BFDE24637BFB008397E400A8
:1016800063877701A6855285829A3369A90093847E
:101690008406E9BF1971A6DAAE848395E500A2DC61
:1016A00086DE328463DB0500DE2423A0060093F788
:1016B000070885E7930700401DA0300836C6EF00F5
:1016C0005021B246E34205FE7247BD67F98F797734
:1016D000BA9793B717009CC2F1BF930700041CC0D0
:1016E000F6506654D654014509618280DE25011109
:1016F00022CC06CE26CA4AC8898B2E8489CF93076E
:1017000074041CC01CC885475CC8F2406244D244C3
:1017100042490561828074003000AA84A53FA24539
:101720002A892685012219E98317C40013F70720A7
:1017300069FFF19B93E727005EA4D1B797070000EC
:101740009387C7D99CD45E2408C008C893E70708CC
:101750005EA4A2475CC8B24781CF8315E40026850A
:10176000EF00501A11C55E24F19B93E717005EA4A9
:101770005E243369F9002316240141BFDDC183A72C
:10178000C5FF411122C406C626C21384C5FF63D318
:1017900007003E94AA84EF00B01E938701839C4308
:1017A00081EF2322040023A881822244B2402685AF
:1017B000924441016F00F01C637EF4001440330733
:1017C000D4006396E7009843DC43369718C05CC0AA
:1017D000D9BFBA87D84319C3E37DE4FE9443338667
:1017E000D700631F86001040B29694C33386D7009B
:1017F000E31DC7FA10435843B29694C3D8C375B7D4
:101800006375C400B1479CC04DB71040B306C40017
:101810006316D70014435843B29614C058C0C0C3CF
:1018200069B78280011126CA93843500F19806CEEB
:1018300022CC4AC84EC6A104B14763F3F404B144B4
:1018400063E2B4042A89EF00B013938701839843BD
:101850003A8439E0938741839C4391E781454A85E7
:10186000052F23AAA182A6854A851D27FD59631944
:101870003507B1472320F9004A85EF00901029A0D1
:10188000E3D004FCB1471CC10145F2406244D2449C
:101890004249B249056182801C40858F63CF0702AF
:1018A000AD4663F6F6001CC03E9404C031A05C4017
:1018B0006313870223A8F1824A85EF00900C130579
:1018C000B4009307440061993307F5405DDF3A9413
:1018D000898F1CC05DBF5CC3C5B72287404095BFE0
:1018E000130435007198E30285FCB305A4404A85D2
:1018F0004525E31C35FBB5BF1C46FD171CC663DA46
:101900000700184E63C5E700A9476394F5006FF020
:101910009F811C422E851387170018C28CA38280DA
:10192000011122CC26CA4AC84EC652C406CE2A8904
:10193000AE893284B304D6007D5A63149400014505
:1019400001A80C204E864A85453F0504E31745FF54
:10195000F2406244D2444249B249224A056182803F
:10196000357122CD26CB4AC94EC706CF52C556C3C4
:101970005AC1DEDEE2DCE6DAAA89AE843289368438
:1019800001C51C4D91E34D3697170000938707A0C2
:101990006397F40C83A44900DE24A18BFDC39C480B
:1019A000EDC393070002A304F1029307000302D2E0
:1019B0002305F10222C6930B5002971A0000938A66
:1019C000EAA0054C294B4A841C2099C3639E770DDD
:1019D000B30C2441638D0C00E6864A86A6854E85AD
:1019E0008137FD57630FF51C9256E69636D21C20C0
:1019F0006389071CFD571309140002C802CE3ECAB2
:101A000002CCA309010482D48345090015465685FA
:101A1000A12F13041900C24751E913F7070109C7A1
:101A200013070002A309E10413F7870009C713078E
:101A3000B002A309E104834609001307A002638FE3
:101A4000E606F2474A84814625461820930514008D
:101A5000130707FD6377E60AB5CA3ECE85A8971738
:101A600000009387A7946395F40083A489002DB7A1
:101A7000971700009387878FE390F4F283A4C9003F
:101A800021BFA6854E85EFF0CFF501DD7D55FA40EB
:101A90006A44DA444A49BA492A4A9A4A0A4BF65BE6
:101AA000665CD65C0D618280050439BF3305554103
:101AB0003315AC00C98F3EC82289B9B732479306A7
:101AC0004700184336C6634707023ACE18209307EB
:101AD000E002631DF70418309307A002631BF702AE
:101AE000B2470904138747009C433AC663C1070203
:101AF0003ECA2DA83307E04093E727003ACE3EC800
:101B0000F1B7B387670385462E84BA973DBFFD576B
:101B1000C5B7050402CA81468147254618209305AA
:101B20001400130707FD6374E606F9F20C200D4656
:101B3000171500001305058A052D11CD9717000014
:101B4000938747891D8D93070004B397A7004245EB
:101B500005045D8D2AC80C201946171500001305D1
:101B6000A587130914002304B102FD2B35C197E7A3
:101B7000FFFF9387274995E74247B247137707103E
:101B800009CF91073EC69257D2973ED22DBDB3875B
:101B9000670385462E84BA9751B79D07E19BA1073D
:101BA000D5B77800970600009386C6D726860C081E
:101BB0004E8597000000E7000000FD572A8AE314D5
:101BC000F5FCDE2493F70704E39207EC1255C1B548
:101BD0007800970600009386E6D426860C084E858A
:101BE000012AE1BF797156CA9C49BA8A984522D424
:101BF00026D24ECE52CC06D64AD05AC85EC6AA8944
:101C00002E84B284368A63D3E700BA879CC0034728
:101C1000340419C385079CC01C4093F7070281C791
:101C20009C4089079CC00329040013796900631A4A
:101C30000900130B9401FD5B5C449840998F634C41
:101C4000F9041C408346340493F70702B336D000EE
:101C5000A5EB13063404D2854E85829AFD576303A3
:101C6000F5041C4011469840998B54448144639775
:101C7000C700B384E64063D3040081441C44184881
:101C80006354F700998FBE94014969047D5B6398A2
:101C90002405014509A885465A86D2854E85829A33
:101CA000631E75017D55B250225492540259F24977
:101CB000624AD24A424BB24B456182800509ADBFB0
:101CC0003307D40013060003A301C70403475404D9
:101CD00093871600A2978906A381E7049DBF8546D6
:101CE0002286D2854E85829AE30E65FB050945B7AB
:101CF000797122D426D24AD04ECE06D652CC56CABC
:101D00005AC8B689942D930790063289AA842E84E6
:101D100013863504638DF60263E2D70693078005C8
:101D20006385F61863EDD700638D062093073004B2
:101D3000638EF60A930A24042301D404C9A09307EE
:101D400030066385F60A93074006E395F6FE1C40CD
:101D5000084393F6070893054500C5C61C410CC30C
:101D600063D807001307D002B307F040A301E404CF
:101D7000970600009386C666294765A89307000763
:101D80006381F61663E5D7029307E0066388F618C9
:101D90009307F006E390F6FA0C401C4313F805088D
:101DA000138547006307080608C39C4385A893076B
:101DB0005007E383F6FE930780076388F6129307C4
:101DC0003007E399F6F61C43D041814593864700DE
:101DD00014C383AA07005685412E01C5330555411A
:101DE00048C05C401CC8A301040461A81C43930ABA
:101DF0002404938647009C4314C32301F4048547BD
:101E0000D5B793F607041C410CC3B9DAC207C187E2
:101E100081BF93F5050408C3C9D99E231307F006B3
:101E20006386E60E970600009386865B2947A3012A
:101E300004044C400CC463C5050008406D9908C0FB
:101E400099E3B28A89CDB28AB3F5E702FD1AB69555
:101E50008C212380BA00B3D5E70263FFE70AA147CC
:101E6000631EF7001C40858B91CB58401C4863C70C
:101E7000E70093070003A38FFAFEFD1A33065641CD
:101E800010C84E87CA867000A2852685A13B7D5A60
:101E9000631D450B7D55B250225492540259F249AC
:101EA000624AD24A424B45618280A382D50497069A
:101EB00000009386E6520C40084313F805081C41C5
:101EC0001105630D080208C313F7150001C793E558
:101ED00005020CC04147A1FF0C4093F5F5FD0CC075
:101EE000B9B79C4193E707029CC193078007A302FF
:101EF000F404970600009386E64F75BF13F80504B7
:101F000008C3E30308FCC207C1837DBF9706000036
:101F10009386064D214721BFAE873DB794411C43B0
:101F2000CC4913F80608138547006306080008C368
:101F30009C438CC339A008C393F606049C43F5DA8E
:101F40008EA323280400B28A2DBF14485686CA8562
:101F500026858299E30045F51C40898B8DE7B247C1
:101F60004844E35AF5F23E853DB785465686CA8514
:101F700026858299E30065F3050A5C443247998F10
:101F8000E345FAFEE9BF014A930A94017D5BF5B788
:101F9000411122C42A842E859707002023A8071602
:101FA00006C6EFE0BFF8FD576319F500970700205C
:101FB0009387C7159C4391C31CC0B2402244410182
:101FC0008280411122C42E848395E50006C65D2AD5
:101FD000634905007C48AA977CC8B240224441016D
:101FE00082805E247D777D17F98F5EA4FDB7DE25A4
:101FF000011122CC26CA4AC84EC606CE93F7071056
:10200000AA842E843289B68991C78395E5008946D2
:1020100001460D225E247D777D17F98F5EA483151E
:10202000E4006244F240CE864A86B249424926859F
:10203000D244056125A8411122C42E848395E50070
:1020400006C6CD28FD575A24631AF500FD77FD1703
:10205000F98F5EA4B2402244410182808567D98F06
:102060005EA468C8C5BF8395E50025A8411122C4B8
:102070002A842E85B28536869707002023A8070874
:1020800006C6EFE01FE7FD576319F500970700202C
:102090009387C7079C4391C31CC0B24022444101AF
:1020A0008280411122C42A842E859707002023AF05
:1020B000070406C61122FD576319F5009707002093
:1020C0009387C7049C4391C31CC0B2402244410182
:1020D0008280411122C42A842E85B2859707002070
:1020E00023A6070206C6CD20FD576319F500970702
:1020F00000209387A7019C4391C31CC0B240224497
:1021000041018280411122C42A842E859707002034
:1021100023AE07FE06C6C920FD576319F5009707D1
:1021200000209387A7FE9C4391C31CC0B240224469
:1021300041018280411122C42A842E85B2853686CF
:102140009707002023A407FC06C67928FD576319CA
:10215000F50097070020938767FB9C4391C31CC041
:10216000B24022444101828093F5F50F2A96631410
:10217000C500014582801C21E38EB7FE0505C5BF61
:1021800082808280411122C42A842E85B2853686BF
:102190009707002023AC07F606C6B928FD57631938
:1021A000F50097070020938767F69C4391C31CC0F6
:1021B000B240224441018280930780051707002026
:1021C0002326F7F47D5582809307800517070020AA
:1021D000232EF7F27D558280930780051707002094
:1021E0002326F7F201458280930780051707002018
:1021F000232EF7F07D558280930780051707002076
:102200002326F7F07D55828053797374656D436C96
:102210006B3A25640D0A00004368697049443A2509
:102220003038780D0A000000546869732069732003
:102230007072696E7466206578616D706C650D00F2
:10224000444D41207472616E7366657220696E69D7
:1022500074207375636365737365642C20746F7485
:10226000616C5F73697A65203D34304B420D00002C
:10227000444D41207472616E7366657220696E69A7
:1022800074206661696C65640000000057726974AF
:102290006544617461206661696C65642C206672B6
:1022A00065655F73706163653D256C752C20726593
:1022B0006D61696E3D256C750D0A0000416C6C20E6
:1022C000646174612066656420746F20646F756258
:1022D0006C65206275666665722C20776169746929
:1022E0006E6720666F7220444D4120746F206669CE
:1022F0006E6973682E2E2E0D0000000063625F630E
:102300006E7420696E206D61696E203D2025642009
:10231000286F6E652066756C6C20544553545F546D
:102320004F54414C5F53495A4520646F6E65290DE7
:102330000A00000067657420696E746F20696E740E
:102340006572727570742025642074696D65730DF3
:102350000A000000446D61205472616E73666572FC
:10236000204572726F720D00000000000000000036
:10237000000000000000000000000000000000005D
:10238000000000000000000000000000000000004D
:10239000000000000000000000000000000000003D
:1023A000000000000000000000000000000000002D
:1023B000000000000000000000000000000000001D
:1023C0000000000000000000232D302B2000000042
:1023D000686C4C0065666745464700003031323313
:1023E0003435363738394142434445460000000011
:1023F000303132333435363738396162636465667B
:0424000000000000D8
:1024040000000000000000000102030406070809A0
:102414000000000001020304010203040607080986
:102424000000000088230000A823000068230000A7
:102434000000000000000000000000000000000098
:102444000000000000000000000000000000000088
:102454000000000000000000000000000000000078
:102464000000000000000000000000000000000068
:102474000000000000000000000000000000000058
:1024840000449508020406080C21002020000020C6
:08249400200000200000000000
:00000001FF
